{
  "_format": "hh-sol-artifact-1",
  "contractName": "Marketplace",
  "sourceName": "src/backend/contracts/Marketplace.sol",
  "abi": [
    {
      "inputs": [
        {
          "internalType": "uint256",
          "name": "_feePercent",
          "type": "uint256"
        }
      ],
      "stateMutability": "nonpayable",
      "type": "constructor"
    },
    {
      "anonymous": false,
      "inputs": [
        {
          "indexed": false,
          "internalType": "uint256",
          "name": "itemId",
          "type": "uint256"
        },
        {
          "indexed": true,
          "internalType": "address",
          "name": "nft",
          "type": "address"
        },
        {
          "indexed": false,
          "internalType": "uint256",
          "name": "tokenId",
          "type": "uint256"
        },
        {
          "indexed": false,
          "internalType": "uint256",
          "name": "price",
          "type": "uint256"
        },
        {
          "indexed": true,
          "internalType": "address",
          "name": "seller",
          "type": "address"
        },
        {
          "indexed": true,
          "internalType": "address",
          "name": "buyer",
          "type": "address"
        }
      ],
      "name": "Bought",
      "type": "event"
    },
    {
      "anonymous": false,
      "inputs": [
        {
          "indexed": false,
          "internalType": "uint256",
          "name": "itemId",
          "type": "uint256"
        },
        {
          "indexed": true,
          "internalType": "address",
          "name": "nft",
          "type": "address"
        },
        {
          "indexed": false,
          "internalType": "uint256",
          "name": "tokenId",
          "type": "uint256"
        },
        {
          "indexed": false,
          "internalType": "uint256",
          "name": "price",
          "type": "uint256"
        },
        {
          "indexed": true,
          "internalType": "address",
          "name": "seller",
          "type": "address"
        }
      ],
      "name": "Offered",
      "type": "event"
    },
    {
      "inputs": [],
      "name": "feeAccount",
      "outputs": [
        {
          "internalType": "address payable",
          "name": "",
          "type": "address"
        }
      ],
      "stateMutability": "view",
      "type": "function"
    },
    {
      "inputs": [],
      "name": "feePercent",
      "outputs": [
        {
          "internalType": "uint256",
          "name": "",
          "type": "uint256"
        }
      ],
      "stateMutability": "view",
      "type": "function"
    },
    {
      "inputs": [
        {
          "internalType": "uint256",
          "name": "_itemId",
          "type": "uint256"
        }
      ],
      "name": "getTotalPrice",
      "outputs": [
        {
          "internalType": "uint256",
          "name": "",
          "type": "uint256"
        }
      ],
      "stateMutability": "view",
      "type": "function"
    },
    {
      "inputs": [],
      "name": "itemCount",
      "outputs": [
        {
          "internalType": "uint256",
          "name": "",
          "type": "uint256"
        }
      ],
      "stateMutability": "view",
      "type": "function"
    },
    {
      "inputs": [
        {
          "internalType": "uint256",
          "name": "",
          "type": "uint256"
        }
      ],
      "name": "items",
      "outputs": [
        {
          "internalType": "uint256",
          "name": "itemId",
          "type": "uint256"
        },
        {
          "internalType": "contract IERC721",
          "name": "nft",
          "type": "address"
        },
        {
          "internalType": "uint256",
          "name": "tokenId",
          "type": "uint256"
        },
        {
          "internalType": "uint256",
          "name": "price",
          "type": "uint256"
        },
        {
          "internalType": "address payable",
          "name": "seller",
          "type": "address"
        },
        {
          "internalType": "bool",
          "name": "sold",
          "type": "bool"
        }
      ],
      "stateMutability": "view",
      "type": "function"
    },
    {
      "inputs": [
        {
          "internalType": "contract IERC721",
          "name": "_nft",
          "type": "address"
        },
        {
          "internalType": "uint256",
          "name": "_tokenId",
          "type": "uint256"
        },
        {
          "internalType": "uint256",
          "name": "_price",
          "type": "uint256"
        }
      ],
      "name": "makeItem",
      "outputs": [],
      "stateMutability": "nonpayable",
      "type": "function"
    },
    {
      "inputs": [
        {
          "internalType": "uint256",
          "name": "_itemId",
          "type": "uint256"
        }
      ],
      "name": "purchaseItem",
      "outputs": [],
      "stateMutability": "payable",
      "type": "function"
    },
    {
      "inputs": [
        {
          "internalType": "uint256",
          "name": "_itemId",
          "type": "uint256"
        },
        {
          "internalType": "address payable",
          "name": "selleracc",
          "type": "address"
        }
      ],
      "name": "purchaselazyItem",
      "outputs": [],
      "stateMutability": "payable",
      "type": "function"
    }
  ],
  "bytecode": "0x60c060405234801561001057600080fd5b50604051620013753803806200137583398181016040528101906100349190610096565b60016000819055503373ffffffffffffffffffffffffffffffffffffffff1660808173ffffffffffffffffffffffffffffffffffffffff1660601b815250508060a08181525050506100e0565b600081519050610090816100c9565b92915050565b6000602082840312156100a857600080fd5b60006100b684828501610081565b91505092915050565b6000819050919050565b6100d2816100bf565b81146100dd57600080fd5b50565b60805160601c60a05161126c62000109600039600061055001526000610526015261126c6000f3fe60806040526004361061007b5760003560e01c8063bfb231d21161004e578063bfb231d21461011d578063ca7dd3751461015f578063d38ea5bf1461019c578063fa00afc7146101b85761007b565b8063185744fe1461008057806365e17c9d1461009c5780636bfb0d01146100c75780637fd6f15c146100f2575b600080fd5b61009a60048036038101906100959190610d0a565b6101e1565b005b3480156100a857600080fd5b506100b1610524565b6040516100be9190610e40565b60405180910390f35b3480156100d357600080fd5b506100dc610548565b6040516100e99190610f32565b60405180910390f35b3480156100fe57600080fd5b5061010761054e565b6040516101149190610f32565b60405180910390f35b34801561012957600080fd5b50610144600480360381019061013f9190610ce1565b610572565b60405161015696959493929190610f4d565b60405180910390f35b34801561016b57600080fd5b5061018660048036038101906101819190610ce1565b6105fb565b6040516101939190610f32565b60405180910390f35b6101b660048036038101906101b19190610ce1565b61061b565b005b3480156101c457600080fd5b506101df60048036038101906101da9190610c92565b610981565b005b60026000541415610227576040517f08c379a000000000000000000000000000000000000000000000000000000000815260040161021e90610f12565b60405180910390fd5b6002600081905550600060026000848152602001908152602001600020600301549050600060026000858152602001908152602001600020905060008411801561027357506001548411155b6102b2576040517f08c379a00000000000000000000000000000000000000000000000000000000081526004016102a990610ef2565b60405180910390fd5b813410156102f5576040517f08c379a00000000000000000000000000000000000000000000000000000000081526004016102ec90610ed2565b60405180910390fd5b8060040160149054906101000a900460ff1615610347576040517f08c379a000000000000000000000000000000000000000000000000000000000815260040161033e90610e92565b60405180910390fd5b8273ffffffffffffffffffffffffffffffffffffffff166108fc82600301549081150290604051600060405180830381858888f19350505050158015610391573d6000803e3d6000fd5b5060018160040160146101000a81548160ff0219169083151502179055508060010160009054906101000a900473ffffffffffffffffffffffffffffffffffffffff1673ffffffffffffffffffffffffffffffffffffffff166323b872dd303384600201546040518463ffffffff1660e01b815260040161041493929190610e5b565b600060405180830381600087803b15801561042e57600080fd5b505af1158015610442573d6000803e3d6000fd5b505050503373ffffffffffffffffffffffffffffffffffffffff168160040160009054906101000a900473ffffffffffffffffffffffffffffffffffffffff1673ffffffffffffffffffffffffffffffffffffffff168260010160009054906101000a900473ffffffffffffffffffffffffffffffffffffffff1673ffffffffffffffffffffffffffffffffffffffff167f8b4c9c8a607d67b321582dd8461041b1dc2ceeca70c8b7f37f8e02095cf2e76d878560020154866003015460405161050e93929190610fae565b60405180910390a4505060016000819055505050565b7f000000000000000000000000000000000000000000000000000000000000000081565b60015481565b7f000000000000000000000000000000000000000000000000000000000000000081565b60026020528060005260406000206000915090508060000154908060010160009054906101000a900473ffffffffffffffffffffffffffffffffffffffff16908060020154908060030154908060040160009054906101000a900473ffffffffffffffffffffffffffffffffffffffff16908060040160149054906101000a900460ff16905086565b600060026000838152602001908152602001600020600301549050919050565b60026000541415610661576040517f08c379a000000000000000000000000000000000000000000000000000000000815260040161065890610f12565b60405180910390fd5b600260008190555060006002600083815260200190815260200160002060030154905060006002600084815260200190815260200160002090506000831180156106ad57506001548311155b6106ec576040517f08c379a00000000000000000000000000000000000000000000000000000000081526004016106e390610ef2565b60405180910390fd5b8134101561072f576040517f08c379a000000000000000000000000000000000000000000000000000000000815260040161072690610ed2565b60405180910390fd5b8060040160149054906101000a900460ff1615610781576040517f08c379a000000000000000000000000000000000000000000000000000000000815260040161077890610e92565b60405180910390fd5b8060040160009054906101000a900473ffffffffffffffffffffffffffffffffffffffff1673ffffffffffffffffffffffffffffffffffffffff166108fc82600301549081150290604051600060405180830381858888f193505050501580156107ef573d6000803e3d6000fd5b5060018160040160146101000a81548160ff0219169083151502179055508060010160009054906101000a900473ffffffffffffffffffffffffffffffffffffffff1673ffffffffffffffffffffffffffffffffffffffff166323b872dd303384600201546040518463ffffffff1660e01b815260040161087293929190610e5b565b600060405180830381600087803b15801561088c57600080fd5b505af11580156108a0573d6000803e3d6000fd5b505050503373ffffffffffffffffffffffffffffffffffffffff168160040160009054906101000a900473ffffffffffffffffffffffffffffffffffffffff1673ffffffffffffffffffffffffffffffffffffffff168260010160009054906101000a900473ffffffffffffffffffffffffffffffffffffffff1673ffffffffffffffffffffffffffffffffffffffff167f8b4c9c8a607d67b321582dd8461041b1dc2ceeca70c8b7f37f8e02095cf2e76d868560020154866003015460405161096c93929190610fae565b60405180910390a45050600160008190555050565b600260005414156109c7576040517f08c379a00000000000000000000000000000000000000000000000000000000081526004016109be90610f12565b60405180910390fd5b600260008190555060008111610a12576040517f08c379a0000000000000000000000000000000000000000000000000000000008152600401610a0990610eb2565b60405180910390fd5b60016000815480929190610a2590611086565b91905055508273ffffffffffffffffffffffffffffffffffffffff166323b872dd3330856040518463ffffffff1660e01b8152600401610a6793929190610e5b565b600060405180830381600087803b158015610a8157600080fd5b505af1158015610a95573d6000803e3d6000fd5b505050506040518060c0016040528060015481526020018473ffffffffffffffffffffffffffffffffffffffff1681526020018381526020018281526020013373ffffffffffffffffffffffffffffffffffffffff168152602001600015158152506002600060015481526020019081526020016000206000820151816000015560208201518160010160006101000a81548173ffffffffffffffffffffffffffffffffffffffff021916908373ffffffffffffffffffffffffffffffffffffffff160217905550604082015181600201556060820151816003015560808201518160040160006101000a81548173ffffffffffffffffffffffffffffffffffffffff021916908373ffffffffffffffffffffffffffffffffffffffff16021790555060a08201518160040160146101000a81548160ff0219169083151502179055509050503373ffffffffffffffffffffffffffffffffffffffff168373ffffffffffffffffffffffffffffffffffffffff167f655a0cf9c8db81512be9a76dc1c5ae5380b8816ce6ad659cd61b715e2999d59a6001548585604051610c3e93929190610fae565b60405180910390a36001600081905550505050565b600081359050610c62816111f1565b92915050565b600081359050610c7781611208565b92915050565b600081359050610c8c8161121f565b92915050565b600080600060608486031215610ca757600080fd5b6000610cb586828701610c68565b9350506020610cc686828701610c7d565b9250506040610cd786828701610c7d565b9150509250925092565b600060208284031215610cf357600080fd5b6000610d0184828501610c7d565b91505092915050565b60008060408385031215610d1d57600080fd5b6000610d2b85828601610c7d565b9250506020610d3c85828601610c53565b9150509250929050565b610d4f81611008565b82525050565b610d5e81610ff6565b82525050565b610d6d8161101a565b82525050565b610d7c81611062565b82525050565b6000610d8f601183610fe5565b9150610d9a826110fe565b602082019050919050565b6000610db2601f83610fe5565b9150610dbd82611127565b602082019050919050565b6000610dd5603383610fe5565b9150610de082611150565b604082019050919050565b6000610df8601283610fe5565b9150610e038261119f565b602082019050919050565b6000610e1b601f83610fe5565b9150610e26826111c8565b602082019050919050565b610e3a81611058565b82525050565b6000602082019050610e556000830184610d46565b92915050565b6000606082019050610e706000830186610d55565b610e7d6020830185610d55565b610e8a6040830184610e31565b949350505050565b60006020820190508181036000830152610eab81610d82565b9050919050565b60006020820190508181036000830152610ecb81610da5565b9050919050565b60006020820190508181036000830152610eeb81610dc8565b9050919050565b60006020820190508181036000830152610f0b81610deb565b9050919050565b60006020820190508181036000830152610f2b81610e0e565b9050919050565b6000602082019050610f476000830184610e31565b92915050565b600060c082019050610f626000830189610e31565b610f6f6020830188610d73565b610f7c6040830187610e31565b610f896060830186610e31565b610f966080830185610d46565b610fa360a0830184610d64565b979650505050505050565b6000606082019050610fc36000830186610e31565b610fd06020830185610e31565b610fdd6040830184610e31565b949350505050565b600082825260208201905092915050565b600061100182611038565b9050919050565b600061101382611038565b9050919050565b60008115159050919050565b600061103182610ff6565b9050919050565b600073ffffffffffffffffffffffffffffffffffffffff82169050919050565b6000819050919050565b600061106d82611074565b9050919050565b600061107f82611038565b9050919050565b600061109182611058565b91507fffffffffffffffffffffffffffffffffffffffffffffffffffffffffffffffff8214156110c4576110c36110cf565b5b600182019050919050565b7f4e487b7100000000000000000000000000000000000000000000000000000000600052601160045260246000fd5b7f6974656d20616c726561647920736f6c64000000000000000000000000000000600082015250565b7f5072696365206d7573742062652067726561746572207468616e207a65726f00600082015250565b7f6e6f7420656e6f75676820657468657220746f20636f766572206974656d207060008201527f7269636520616e64206d61726b65742066656500000000000000000000000000602082015250565b7f6974656d20646f65736e27742065786973740000000000000000000000000000600082015250565b7f5265656e7472616e637947756172643a207265656e7472616e742063616c6c00600082015250565b6111fa81611008565b811461120557600080fd5b50565b61121181611026565b811461121c57600080fd5b50565b61122881611058565b811461123357600080fd5b5056fea26469706673582212205af875e90849ecaf662ebf5106ed428177e513806ac8fb258f3dfd4d036946e464736f6c63430008040033",
  "linkReferences": {},
  "deployedLinkReferences": {}
}